{
  "_format": "hh-sol-artifact-1",
  "contractName": "DappEventX",
  "sourceName": "contracts/DappEventX.sol",
  "abi": [
    {
      "inputs": [
        {
          "internalType": "uint256",
          "name": "_pct",
          "type": "uint256"
        }
      ],
      "stateMutability": "nonpayable",
      "type": "constructor"
    },
    {
      "anonymous": false,
      "inputs": [
        {
          "indexed": true,
          "internalType": "address",
          "name": "owner",
          "type": "address"
        },
        {
          "indexed": true,
          "internalType": "address",
          "name": "approved",
          "type": "address"
        },
        {
          "indexed": true,
          "internalType": "uint256",
          "name": "tokenId",
          "type": "uint256"
        }
      ],
      "name": "Approval",
      "type": "event"
    },
    {
      "anonymous": false,
      "inputs": [
        {
          "indexed": true,
          "internalType": "address",
          "name": "owner",
          "type": "address"
        },
        {
          "indexed": true,
          "internalType": "address",
          "name": "operator",
          "type": "address"
        },
        {
          "indexed": false,
          "internalType": "bool",
          "name": "approved",
          "type": "bool"
        }
      ],
      "name": "ApprovalForAll",
      "type": "event"
    },
    {
      "anonymous": false,
      "inputs": [
        {
          "indexed": true,
          "internalType": "uint256",
          "name": "eventId",
          "type": "uint256"
        },
        {
          "indexed": false,
          "internalType": "string",
          "name": "metadataURI",
          "type": "string"
        },
        {
          "indexed": true,
          "internalType": "address",
          "name": "owner",
          "type": "address"
        }
      ],
      "name": "EventCreated",
      "type": "event"
    },
    {
      "anonymous": false,
      "inputs": [
        {
          "indexed": true,
          "internalType": "uint256",
          "name": "eventId",
          "type": "uint256"
        },
        {
          "indexed": false,
          "internalType": "string",
          "name": "metadataURI",
          "type": "string"
        }
      ],
      "name": "EventUpdated",
      "type": "event"
    },
    {
      "anonymous": false,
      "inputs": [
        {
          "indexed": true,
          "internalType": "address",
          "name": "previousOwner",
          "type": "address"
        },
        {
          "indexed": true,
          "internalType": "address",
          "name": "newOwner",
          "type": "address"
        }
      ],
      "name": "OwnershipTransferred",
      "type": "event"
    },
    {
      "anonymous": false,
      "inputs": [
        {
          "indexed": true,
          "internalType": "address",
          "name": "from",
          "type": "address"
        },
        {
          "indexed": true,
          "internalType": "address",
          "name": "to",
          "type": "address"
        },
        {
          "indexed": true,
          "internalType": "uint256",
          "name": "tokenId",
          "type": "uint256"
        }
      ],
      "name": "Transfer",
      "type": "event"
    },
    {
      "inputs": [
        {
          "internalType": "address",
          "name": "to",
          "type": "address"
        },
        {
          "internalType": "uint256",
          "name": "tokenId",
          "type": "uint256"
        }
      ],
      "name": "approve",
      "outputs": [],
      "stateMutability": "nonpayable",
      "type": "function"
    },
    {
      "inputs": [],
      "name": "balance",
      "outputs": [
        {
          "internalType": "uint256",
          "name": "",
          "type": "uint256"
        }
      ],
      "stateMutability": "view",
      "type": "function"
    },
    {
      "inputs": [
        {
          "internalType": "address",
          "name": "owner",
          "type": "address"
        }
      ],
      "name": "balanceOf",
      "outputs": [
        {
          "internalType": "uint256",
          "name": "",
          "type": "uint256"
        }
      ],
      "stateMutability": "view",
      "type": "function"
    },
    {
      "inputs": [
        {
          "internalType": "uint256",
          "name": "eventId",
          "type": "uint256"
        },
        {
          "internalType": "uint256",
          "name": "numOfticket",
          "type": "uint256"
        }
      ],
      "name": "buyTickets",
      "outputs": [],
      "stateMutability": "payable",
      "type": "function"
    },
    {
      "inputs": [
        {
          "internalType": "string",
          "name": "metadataURI",
          "type": "string"
        },
        {
          "internalType": "uint256",
          "name": "capacity",
          "type": "uint256"
        },
        {
          "internalType": "uint256",
          "name": "ticketCost",
          "type": "uint256"
        },
        {
          "internalType": "uint256",
          "name": "startsAt",
          "type": "uint256"
        },
        {
          "internalType": "uint256",
          "name": "endsAt",
          "type": "uint256"
        }
      ],
      "name": "createEvent",
      "outputs": [],
      "stateMutability": "nonpayable",
      "type": "function"
    },
    {
      "inputs": [
        {
          "internalType": "uint256",
          "name": "eventId",
          "type": "uint256"
        }
      ],
      "name": "deleteEvent",
      "outputs": [],
      "stateMutability": "nonpayable",
      "type": "function"
    },
    {
      "inputs": [
        {
          "internalType": "uint256",
          "name": "tokenId",
          "type": "uint256"
        }
      ],
      "name": "getApproved",
      "outputs": [
        {
          "internalType": "address",
          "name": "",
          "type": "address"
        }
      ],
      "stateMutability": "view",
      "type": "function"
    },
    {
      "inputs": [],
      "name": "getEvents",
      "outputs": [
        {
          "components": [
            {
              "internalType": "uint256",
              "name": "id",
              "type": "uint256"
            },
            {
              "internalType": "string",
              "name": "metadataURI",
              "type": "string"
            },
            {
              "internalType": "address",
              "name": "owner",
              "type": "address"
            },
            {
              "internalType": "uint256",
              "name": "sales",
              "type": "uint256"
            },
            {
              "internalType": "uint256",
              "name": "ticketCost",
              "type": "uint256"
            },
            {
              "internalType": "uint256",
              "name": "capacity",
              "type": "uint256"
            },
            {
              "internalType": "uint256",
              "name": "seats",
              "type": "uint256"
            },
            {
              "internalType": "uint256",
              "name": "startsAt",
              "type": "uint256"
            },
            {
              "internalType": "uint256",
              "name": "endsAt",
              "type": "uint256"
            },
            {
              "internalType": "uint256",
              "name": "timestamp",
              "type": "uint256"
            },
            {
              "internalType": "bool",
              "name": "deleted",
              "type": "bool"
            },
            {
              "internalType": "bool",
              "name": "paidOut",
              "type": "bool"
            },
            {
              "internalType": "bool",
              "name": "refunded",
              "type": "bool"
            },
            {
              "internalType": "bool",
              "name": "minted",
              "type": "bool"
            }
          ],
          "internalType": "struct DappEventX.EventStruct[]",
          "name": "Events",
          "type": "tuple[]"
        }
      ],
      "stateMutability": "view",
      "type": "function"
    },
    {
      "inputs": [],
      "name": "getMyEvents",
      "outputs": [
        {
          "components": [
            {
              "internalType": "uint256",
              "name": "id",
              "type": "uint256"
            },
            {
              "internalType": "string",
              "name": "metadataURI",
              "type": "string"
            },
            {
              "internalType": "address",
              "name": "owner",
              "type": "address"
            },
            {
              "internalType": "uint256",
              "name": "sales",
              "type": "uint256"
            },
            {
              "internalType": "uint256",
              "name": "ticketCost",
              "type": "uint256"
            },
            {
              "internalType": "uint256",
              "name": "capacity",
              "type": "uint256"
            },
            {
              "internalType": "uint256",
              "name": "seats",
              "type": "uint256"
            },
            {
              "internalType": "uint256",
              "name": "startsAt",
              "type": "uint256"
            },
            {
              "internalType": "uint256",
              "name": "endsAt",
              "type": "uint256"
            },
            {
              "internalType": "uint256",
              "name": "timestamp",
              "type": "uint256"
            },
            {
              "internalType": "bool",
              "name": "deleted",
              "type": "bool"
            },
            {
              "internalType": "bool",
              "name": "paidOut",
              "type": "bool"
            },
            {
              "internalType": "bool",
              "name": "refunded",
              "type": "bool"
            },
            {
              "internalType": "bool",
              "name": "minted",
              "type": "bool"
            }
          ],
          "internalType": "struct DappEventX.EventStruct[]",
          "name": "Events",
          "type": "tuple[]"
        }
      ],
      "stateMutability": "view",
      "type": "function"
    },
    {
      "inputs": [
        {
          "internalType": "uint256",
          "name": "eventId",
          "type": "uint256"
        }
      ],
      "name": "getSingleEvent",
      "outputs": [
        {
          "components": [
            {
              "internalType": "uint256",
              "name": "id",
              "type": "uint256"
            },
            {
              "internalType": "string",
              "name": "metadataURI",
              "type": "string"
            },
            {
              "internalType": "address",
              "name": "owner",
              "type": "address"
            },
            {
              "internalType": "uint256",
              "name": "sales",
              "type": "uint256"
            },
            {
              "internalType": "uint256",
              "name": "ticketCost",
              "type": "uint256"
            },
            {
              "internalType": "uint256",
              "name": "capacity",
              "type": "uint256"
            },
            {
              "internalType": "uint256",
              "name": "seats",
              "type": "uint256"
            },
            {
              "internalType": "uint256",
              "name": "startsAt",
              "type": "uint256"
            },
            {
              "internalType": "uint256",
              "name": "endsAt",
              "type": "uint256"
            },
            {
              "internalType": "uint256",
              "name": "timestamp",
              "type": "uint256"
            },
            {
              "internalType": "bool",
              "name": "deleted",
              "type": "bool"
            },
            {
              "internalType": "bool",
              "name": "paidOut",
              "type": "bool"
            },
            {
              "internalType": "bool",
              "name": "refunded",
              "type": "bool"
            },
            {
              "internalType": "bool",
              "name": "minted",
              "type": "bool"
            }
          ],
          "internalType": "struct DappEventX.EventStruct",
          "name": "",
          "type": "tuple"
        }
      ],
      "stateMutability": "view",
      "type": "function"
    },
    {
      "inputs": [
        {
          "internalType": "uint256",
          "name": "eventId",
          "type": "uint256"
        }
      ],
      "name": "getTickets",
      "outputs": [
        {
          "components": [
            {
              "internalType": "uint256",
              "name": "id",
              "type": "uint256"
            },
            {
              "internalType": "uint256",
              "name": "eventId",
              "type": "uint256"
            },
            {
              "internalType": "address",
              "name": "owner",
              "type": "address"
            },
            {
              "internalType": "uint256",
              "name": "ticketCost",
              "type": "uint256"
            },
            {
              "internalType": "uint256",
              "name": "timestamp",
              "type": "uint256"
            },
            {
              "internalType": "bool",
              "name": "refunded",
              "type": "bool"
            },
            {
              "internalType": "bool",
              "name": "minted",
              "type": "bool"
            }
          ],
          "internalType": "struct DappEventX.TicketStruct[]",
          "name": "Tickets",
          "type": "tuple[]"
        }
      ],
      "stateMutability": "view",
      "type": "function"
    },
    {
      "inputs": [
        {
          "internalType": "address",
          "name": "owner",
          "type": "address"
        },
        {
          "internalType": "address",
          "name": "operator",
          "type": "address"
        }
      ],
      "name": "isApprovedForAll",
      "outputs": [
        {
          "internalType": "bool",
          "name": "",
          "type": "bool"
        }
      ],
      "stateMutability": "view",
      "type": "function"
    },
    {
      "inputs": [],
      "name": "name",
      "outputs": [
        {
          "internalType": "string",
          "name": "",
          "type": "string"
        }
      ],
      "stateMutability": "view",
      "type": "function"
    },
    {
      "inputs": [],
      "name": "owner",
      "outputs": [
        {
          "internalType": "address",
          "name": "",
          "type": "address"
        }
      ],
      "stateMutability": "view",
      "type": "function"
    },
    {
      "inputs": [
        {
          "internalType": "uint256",
          "name": "tokenId",
          "type": "uint256"
        }
      ],
      "name": "ownerOf",
      "outputs": [
        {
          "internalType": "address",
          "name": "",
          "type": "address"
        }
      ],
      "stateMutability": "view",
      "type": "function"
    },
    {
      "inputs": [
        {
          "internalType": "uint256",
          "name": "eventId",
          "type": "uint256"
        }
      ],
      "name": "payout",
      "outputs": [],
      "stateMutability": "nonpayable",
      "type": "function"
    },
    {
      "inputs": [],
      "name": "renounceOwnership",
      "outputs": [],
      "stateMutability": "nonpayable",
      "type": "function"
    },
    {
      "inputs": [
        {
          "internalType": "address",
          "name": "from",
          "type": "address"
        },
        {
          "internalType": "address",
          "name": "to",
          "type": "address"
        },
        {
          "internalType": "uint256",
          "name": "tokenId",
          "type": "uint256"
        }
      ],
      "name": "safeTransferFrom",
      "outputs": [],
      "stateMutability": "nonpayable",
      "type": "function"
    },
    {
      "inputs": [
        {
          "internalType": "address",
          "name": "from",
          "type": "address"
        },
        {
          "internalType": "address",
          "name": "to",
          "type": "address"
        },
        {
          "internalType": "uint256",
          "name": "tokenId",
          "type": "uint256"
        },
        {
          "internalType": "bytes",
          "name": "data",
          "type": "bytes"
        }
      ],
      "name": "safeTransferFrom",
      "outputs": [],
      "stateMutability": "nonpayable",
      "type": "function"
    },
    {
      "inputs": [
        {
          "internalType": "address",
          "name": "operator",
          "type": "address"
        },
        {
          "internalType": "bool",
          "name": "approved",
          "type": "bool"
        }
      ],
      "name": "setApprovalForAll",
      "outputs": [],
      "stateMutability": "nonpayable",
      "type": "function"
    },
    {
      "inputs": [
        {
          "internalType": "bytes4",
          "name": "interfaceId",
          "type": "bytes4"
        }
      ],
      "name": "supportsInterface",
      "outputs": [
        {
          "internalType": "bool",
          "name": "",
          "type": "bool"
        }
      ],
      "stateMutability": "view",
      "type": "function"
    },
    {
      "inputs": [],
      "name": "symbol",
      "outputs": [
        {
          "internalType": "string",
          "name": "",
          "type": "string"
        }
      ],
      "stateMutability": "view",
      "type": "function"
    },
    {
      "inputs": [
        {
          "internalType": "uint256",
          "name": "tokenId",
          "type": "uint256"
        }
      ],
      "name": "tokenURI",
      "outputs": [
        {
          "internalType": "string",
          "name": "",
          "type": "string"
        }
      ],
      "stateMutability": "view",
      "type": "function"
    },
    {
      "inputs": [
        {
          "internalType": "address",
          "name": "from",
          "type": "address"
        },
        {
          "internalType": "address",
          "name": "to",
          "type": "address"
        },
        {
          "internalType": "uint256",
          "name": "tokenId",
          "type": "uint256"
        }
      ],
      "name": "transferFrom",
      "outputs": [],
      "stateMutability": "nonpayable",
      "type": "function"
    },
    {
      "inputs": [
        {
          "internalType": "address",
          "name": "newOwner",
          "type": "address"
        }
      ],
      "name": "transferOwnership",
      "outputs": [],
      "stateMutability": "nonpayable",
      "type": "function"
    },
    {
      "inputs": [
        {
          "internalType": "uint256",
          "name": "eventId",
          "type": "uint256"
        },
        {
          "internalType": "string",
          "name": "metadataURI",
          "type": "string"
        },
        {
          "internalType": "uint256",
          "name": "capacity",
          "type": "uint256"
        },
        {
          "internalType": "uint256",
          "name": "ticketCost",
          "type": "uint256"
        },
        {
          "internalType": "uint256",
          "name": "startsAt",
          "type": "uint256"
        },
        {
          "internalType": "uint256",
          "name": "endsAt",
          "type": "uint256"
        }
      ],
      "name": "updateEvent",
      "outputs": [],
      "stateMutability": "nonpayable",
      "type": "function"
    }
  ],
  "bytecode": "0x60806040523480156200001157600080fd5b506040516200355a3803806200355a83398101604081905262000034916200010b565b6040518060400160405280600781526020016608aeccadce840b60cb1b8152506040518060400160405280600381526020016208aacb60eb1b8152506200008a62000084620000b760201b60201c565b620000bb565b6001805560026200009c8382620001ca565b506003620000ab8282620001ca565b505050600b5562000296565b3390565b600080546001600160a01b038381166001600160a01b0319831681178455604051919092169283917f8be0079c531659141344cd1fd0a4f28419497f9722a3daafe3b4186f6b6457e09190a35050565b6000602082840312156200011e57600080fd5b5051919050565b634e487b7160e01b600052604160045260246000fd5b600181811c908216806200015057607f821691505b6020821081036200017157634e487b7160e01b600052602260045260246000fd5b50919050565b601f821115620001c557600081815260208120601f850160051c81016020861015620001a05750805b601f850160051c820191505b81811015620001c157828155600101620001ac565b5050505b505050565b81516001600160401b03811115620001e657620001e662000125565b620001fe81620001f784546200013b565b8462000177565b602080601f8311600181146200023657600084156200021d5750858301515b600019600386901b1c1916600185901b178555620001c1565b600085815260208120601f198616915b82811015620002675788860151825594840194600190910190840162000246565b5085821015620002865787850151600019600388901b60f8161c191681555b5050505050600190811b01905550565b6132b480620002a66000396000f3fe6080604052600436106101815760003560e01c8063715018a6116100d1578063b88d4fde1161008a578063e115234311610064578063e115234314610467578063e985e9c514610487578063f2fde38b146104a7578063f8749a58146104c757600080fd5b8063b88d4fde14610407578063c87b56dd14610427578063dbf3f3c91461044757600080fd5b8063715018a6146103765780638627df461461038b5780638da5cb5b1461039e57806395d89b41146103bc578063a22cb465146103d1578063b69ef8a8146103f157600080fd5b806323b872dd1161013e578063404aa8f911610118578063404aa8f9146102f357806342842e0e146103085780636352211e1461032857806370a082311461034857600080fd5b806323b872dd146102915780633548124b146102b157806337fbea15146102d357600080fd5b806301ffc9a71461018657806306fdde03146101bb578063071843aa146101dd578063081812fc1461020a578063095ea7b31461024257806314f2979f14610264575b600080fd5b34801561019257600080fd5b506101a66101a1366004612836565b6104e7565b60405190151581526020015b60405180910390f35b3480156101c757600080fd5b506101d0610539565b6040516101b291906128a3565b3480156101e957600080fd5b506101fd6101f83660046128b6565b6105cb565b6040516101b2919061299c565b34801561021657600080fd5b5061022a6102253660046128b6565b610734565b6040516001600160a01b0390911681526020016101b2565b34801561024e57600080fd5b5061026261025d3660046129cb565b61075b565b005b34801561027057600080fd5b5061028461027f3660046128b6565b610875565b6040516101b291906129f5565b34801561029d57600080fd5b506102626102ac366004612a84565b61093b565b3480156102bd57600080fd5b506102c661096c565b6040516101b29190612ac0565b3480156102df57600080fd5b506102626102ee366004612bce565b610c1c565b3480156102ff57600080fd5b506102c6610dda565b34801561031457600080fd5b50610262610323366004612a84565b611036565b34801561033457600080fd5b5061022a6103433660046128b6565b611051565b34801561035457600080fd5b50610368610363366004612c38565b6110b1565b6040519081526020016101b2565b34801561038257600080fd5b50610262611137565b610262610399366004612c53565b61114b565b3480156103aa57600080fd5b506000546001600160a01b031661022a565b3480156103c857600080fd5b506101d0611439565b3480156103dd57600080fd5b506102626103ec366004612c75565b611448565b3480156103fd57600080fd5b50610368600a5481565b34801561041357600080fd5b50610262610422366004612cb1565b611457565b34801561043357600080fd5b506101d06104423660046128b6565b61148f565b34801561045357600080fd5b50610262610462366004612d2d565b611503565b34801561047357600080fd5b506102626104823660046128b6565b611789565b34801561049357600080fd5b506101a66104a2366004612d8a565b6119d5565b3480156104b357600080fd5b506102626104c2366004612c38565b611a03565b3480156104d357600080fd5b506102626104e23660046128b6565b611a7c565b60006001600160e01b031982166380ac58cd60e01b148061051857506001600160e01b03198216635b5e139f60e01b145b8061053357506301ffc9a760e01b6001600160e01b03198316145b92915050565b60606002805461054890612dbd565b80601f016020809104026020016040519081016040528092919081815260200182805461057490612dbd565b80156105c15780601f10610596576101008083540402835291602001916105c1565b820191906000526020600020905b8154815290600101906020018083116105a457829003601f168201915b5050505050905090565b6105d36127a0565b600c6000838152602001908152602001600020604051806101c00160405290816000820154815260200160018201805461060c90612dbd565b80601f016020809104026020016040519081016040528092919081815260200182805461063890612dbd565b80156106855780601f1061065a57610100808354040283529160200191610685565b820191906000526020600020905b81548152906001019060200180831161066857829003601f168201915b505050918352505060028201546001600160a01b03166020820152600382015460408201526004820154606082015260058201546080820152600682015460a0820152600782015460c0820152600882015460e0820152600982015461010080830191909152600a9092015460ff808216151561012084015292810483161515610140830152620100008104831615156101608301526301000000900490911615156101809091015292915050565b600061073f82611c7f565b506000908152600660205260409020546001600160a01b031690565b600061076682611051565b9050806001600160a01b0316836001600160a01b0316036107d85760405162461bcd60e51b815260206004820152602160248201527f4552433732313a20617070726f76616c20746f2063757272656e74206f776e656044820152603960f91b60648201526084015b60405180910390fd5b336001600160a01b03821614806107f457506107f481336119d5565b6108665760405162461bcd60e51b815260206004820152603d60248201527f4552433732313a20617070726f76652063616c6c6572206973206e6f7420746f60448201527f6b656e206f776e6572206f7220617070726f76656420666f7220616c6c00000060648201526084016107cf565b6108708383611cde565b505050565b6060600d6000838152602001908152602001600020805480602002602001604051908101604052809291908181526020016000905b828210156109305760008481526020908190206040805160e08101825260068602909201805483526001808201548486015260028201546001600160a01b03169284019290925260038101546060840152600481015460808401526005015460ff808216151560a085015261010090910416151560c083015290835290920191016108aa565b505050509050919050565b6109453382611d4c565b6109615760405162461bcd60e51b81526004016107cf90612df7565b610870838383611dab565b6060600060015b60085481116109dc576000818152600c60205260409020600a015460ff161580156109b757506000818152600c60205260409020600201546001600160a01b031633145b156109ca57816109c681612e5a565b9250505b806109d481612e5a565b915050610973565b508067ffffffffffffffff8111156109f6576109f6612b22565b604051908082528060200260200182016040528015610a2f57816020015b610a1c6127a0565b815260200190600190039081610a145790505b509150600060015b6008548111610c16576000818152600c60205260409020600a015460ff16158015610a7b57506000818152600c60205260409020600201546001600160a01b031633145b15610c0457600c6000828152602001908152602001600020604051806101c001604052908160008201548152602001600182018054610ab990612dbd565b80601f0160208091040260200160405190810160405280929190818152602001828054610ae590612dbd565b8015610b325780601f10610b0757610100808354040283529160200191610b32565b820191906000526020600020905b815481529060010190602001808311610b1557829003601f168201915b505050918352505060028201546001600160a01b03166020820152600382015460408201526004820154606082015260058201546080820152600682015460a0820152600782015460c0820152600882015460e0820152600982015461010080830191909152600a9092015460ff80821615156101208401529281048316151561014083015262010000810483161515610160830152630100000090049091161515610180909101528483610be681612e5a565b945081518110610bf857610bf8612e73565b60200260200101819052505b80610c0e81612e5a565b915050610a37565b50505090565b6000868152600e602052604090205460ff16610c4a5760405162461bcd60e51b81526004016107cf90612e89565b6000868152600c60205260409020600201546001600160a01b03163314610c835760405162461bcd60e51b81526004016107cf90612eb2565b60008311610ca35760405162461bcd60e51b81526004016107cf90612edf565b60008411610cc35760405162461bcd60e51b81526004016107cf90612f23565b6000855111610d145760405162461bcd60e51b815260206004820152601c60248201527f4d65746164617461205552492063616e6e6f7420626520656d7074790000000060448201526064016107cf565b60008211610d345760405162461bcd60e51b81526004016107cf90612f65565b818111610d535760405162461bcd60e51b81526004016107cf90612fa9565b6000868152600c60205260409020600101610d6e868261303f565b506000868152600c6020526040908190206005810186905560048101859055600781018490556008018290555186907f0c21d47f606573d65eedb6ee084e32d784cfcd5ce32240b22f19de37d6b4096990610dca9088906128a3565b60405180910390a2505050505050565b6060600060015b6008548111610e23576000818152600c60205260409020600a015460ff16610e115781610e0d81612e5a565b9250505b80610e1b81612e5a565b915050610de1565b508067ffffffffffffffff811115610e3d57610e3d612b22565b604051908082528060200260200182016040528015610e7657816020015b610e636127a0565b815260200190600190039081610e5b5790505b509150600060015b6008548111610c16576000818152600c60205260409020600a015460ff1661102457600c6000828152602001908152602001600020604051806101c001604052908160008201548152602001600182018054610ed990612dbd565b80601f0160208091040260200160405190810160405280929190818152602001828054610f0590612dbd565b8015610f525780601f10610f2757610100808354040283529160200191610f52565b820191906000526020600020905b815481529060010190602001808311610f3557829003601f168201915b505050918352505060028201546001600160a01b03166020820152600382015460408201526004820154606082015260058201546080820152600682015460a0820152600782015460c0820152600882015460e0820152600982015461010080830191909152600a9092015460ff8082161515610120840152928104831615156101408301526201000081048316151561016083015263010000009004909116151561018090910152848361100681612e5a565b94508151811061101857611018612e73565b60200260200101819052505b8061102e81612e5a565b915050610e7e565b61087083838360405180602001604052806000815250611457565b6000818152600460205260408120546001600160a01b0316806105335760405162461bcd60e51b8152602060048201526018602482015277115490cdcc8c4e881a5b9d985b1a59081d1bdad95b88125160421b60448201526064016107cf565b60006001600160a01b03821661111b5760405162461bcd60e51b815260206004820152602960248201527f4552433732313a2061646472657373207a65726f206973206e6f7420612076616044820152683634b21037bbb732b960b91b60648201526084016107cf565b506001600160a01b031660009081526005602052604090205490565b61113f611f0f565b6111496000611f69565b565b6000828152600e602052604090205460ff166111795760405162461bcd60e51b81526004016107cf90612e89565b6000828152600c60205260409020600401546111969082906130ff565b3410156111db5760405162461bcd60e51b8152602060048201526013602482015272125b9cdd59999a58da595b9d08185b5bdd5b9d606a1b60448201526064016107cf565b600081116112395760405162461bcd60e51b815260206004820152602560248201527f4e756d4f667469636b6574206d7573742062652067726561746572207468616e604482015264207a65726f60d81b60648201526084016107cf565b6000828152600c60205260409020600581015460069091015461125d908390613116565b11156112ab5760405162461bcd60e51b815260206004820152601760248201527f4f7574206f662073656174696e6720636170616369747900000000000000000060448201526064016107cf565b60005b818110156113f5576113036040518060e00160405280600081526020016000815260200160006001600160a01b0316815260200160008152602001600081526020016000151581526020016000151581525090565b6000848152600d602090815260408083205484528382018790523384820152868352600c909152902060040154606082015261133d611fb9565b608082019081526000858152600d6020908152604080832080546001818101835591855293839020865160069095020193845591850151918301919091558301516002820180546001600160a01b039092166001600160a01b0319909216919091179055606083015160038201559051600482015560a08201516005909101805460c09093015115156101000261ff00199215159290921661ffff1990931692909217179055806113ed81612e5a565b9150506112ae565b506000828152600c602052604081206006018054839290611417908490613116565b9250508190555034600a60008282546114309190613116565b90915550505050565b60606003805461054890612dbd565b611453338383611fd8565b5050565b6114613383611d4c565b61147d5760405162461bcd60e51b81526004016107cf90612df7565b611489848484846120a6565b50505050565b606061149a82611c7f565b60006114b160408051602081019091526000815290565b905060008151116114d157604051806020016040528060008152506114fc565b806114db846120d9565b6040516020016114ec929190613129565b6040516020818303038152906040525b9392505050565b600083116115235760405162461bcd60e51b81526004016107cf90612edf565b600084116115435760405162461bcd60e51b81526004016107cf90612f23565b60008551116115945760405162461bcd60e51b815260206004820152601c60248201527f4d65746164617461205552492063616e6e6f7420626520656d7074790000000060448201526064016107cf565b600082116115b45760405162461bcd60e51b81526004016107cf90612f65565b8181116115d35760405162461bcd60e51b81526004016107cf90612fa9565b6115e1600880546001019055565b6115e96127a0565b60085481526020810186905260a081018590526080810184905260e081018390526101008101829052336040820152611620611fb9565b61012082015280516000908152600e60209081526040808320805460ff1916600190811790915584518452600c8352922083518155908301518392820190611668908261303f565b506040828101516002830180546001600160a01b0319166001600160a01b03909216919091179055606083015160038301556080830151600483015560a0830151600583015560c0830151600683015560e083015160078301556101008084015160088401556101208401516009840155610140840151600a90930180546101608601516101808701516101a09097015161ffff1990921695151561ff001916959095179415159092029390931763ffff00001916620100009415159490940263ff000000191693909317630100000093151593909302929092179055815190513391907f40fb05b814a900c99fa0a76d919dfdeaf3389540e4ca70f97ba40ca9a38f379790611779908a906128a3565b60405180910390a3505050505050565b6000818152600e602052604090205460ff166117b75760405162461bcd60e51b81526004016107cf90612e89565b6000818152600c60205260409020600a0154610100900460ff16156118175760405162461bcd60e51b8152602060048201526016602482015275115d995b9d08185b1c9958591e481c185a59081bdd5d60521b60448201526064016107cf565b6000818152600c6020526040902060080154611831611fb9565b116118745760405162461bcd60e51b81526020600482015260136024820152724576656e74207374696c6c206f6e676f696e6760681b60448201526064016107cf565b6000818152600c60205260409020600201546001600160a01b03163314806118a657506000546001600160a01b031633145b6118c25760405162461bcd60e51b81526004016107cf90612eb2565b6118cb8161216c565b61190e5760405162461bcd60e51b8152602060048201526014602482015273115d995b9d0819985a5b1959081d1bc81b5a5b9d60621b60448201526064016107cf565b6000818152600c60205260408120600681015460049091015461193191906130ff565b905060006064600b548361194591906130ff565b61194f9190613158565b6000848152600c6020526040902060020154909150611980906001600160a01b031661197b838561317a565b61226d565b61199b6119956000546001600160a01b031690565b8261226d565b6000838152600c60205260408120600a908101805461ff00191661010017905580548492906119cb90849061317a565b9091555050505050565b6001600160a01b03918216600090815260076020908152604080832093909416825291909152205460ff1690565b611a0b611f0f565b6001600160a01b038116611a705760405162461bcd60e51b815260206004820152602660248201527f4f776e61626c653a206e6577206f776e657220697320746865207a65726f206160448201526564647265737360d01b60648201526084016107cf565b611a7981611f69565b50565b6000818152600e602052604090205460ff16611aaa5760405162461bcd60e51b81526004016107cf90612e89565b6000818152600c60205260409020600201546001600160a01b0316331480611adc57506000546001600160a01b031633145b611af85760405162461bcd60e51b81526004016107cf90612eb2565b6000818152600c60205260409020600a0154610100900460ff1615611b585760405162461bcd60e51b8152602060048201526016602482015275115d995b9d08185b1c9958591e481c185a59081bdd5d60521b60448201526064016107cf565b6000818152600c60205260409020600a015462010000900460ff1615611bb95760405162461bcd60e51b8152602060048201526016602482015275115d995b9d08185b1c9958591e481c99599d5b99195960521b60448201526064016107cf565b6000818152600c60205260409020600a015460ff1615611c135760405162461bcd60e51b8152602060048201526015602482015274115d995b9d08185b1c9958591e4819195b195d1959605a1b60448201526064016107cf565b611c1c816122cd565b611c615760405162461bcd60e51b8152602060048201526016602482015275115d995b9d0819985a5b1959081d1bc81c99599d5b9960521b60448201526064016107cf565b6000908152600c60205260409020600a01805460ff19166001179055565b6000818152600460205260409020546001600160a01b0316611a795760405162461bcd60e51b8152602060048201526018602482015277115490cdcc8c4e881a5b9d985b1a59081d1bdad95b88125160421b60448201526064016107cf565b600081815260066020526040902080546001600160a01b0319166001600160a01b0384169081179091558190611d1382611051565b6001600160a01b03167f8c5be1e5ebec7d5bd14f71427d1e84f3dd0314c0f7b2291e5b200ac8c7c3b92560405160405180910390a45050565b600080611d5883611051565b9050806001600160a01b0316846001600160a01b03161480611d7f5750611d7f81856119d5565b80611da35750836001600160a01b0316611d9884610734565b6001600160a01b0316145b949350505050565b826001600160a01b0316611dbe82611051565b6001600160a01b031614611de45760405162461bcd60e51b81526004016107cf9061318d565b6001600160a01b038216611e465760405162461bcd60e51b8152602060048201526024808201527f4552433732313a207472616e7366657220746f20746865207a65726f206164646044820152637265737360e01b60648201526084016107cf565b826001600160a01b0316611e5982611051565b6001600160a01b031614611e7f5760405162461bcd60e51b81526004016107cf9061318d565b600081815260066020908152604080832080546001600160a01b03199081169091556001600160a01b0387811680865260058552838620805460001901905590871680865283862080546001019055868652600490945282852080549092168417909155905184937fddf252ad1be2c89b69c2b068fc378daa952ba7f163c4a11628f55a4df523b3ef91a4505050565b6000546001600160a01b031633146111495760405162461bcd60e51b815260206004820181905260248201527f4f776e61626c653a2063616c6c6572206973206e6f7420746865206f776e657260448201526064016107cf565b600080546001600160a01b038381166001600160a01b0319831681178455604051919092169283917f8be0079c531659141344cd1fd0a4f28419497f9722a3daafe3b4186f6b6457e09190a35050565b6000611fc7426103e86130ff565b611fd3906103e8613116565b905090565b816001600160a01b0316836001600160a01b0316036120395760405162461bcd60e51b815260206004820152601960248201527f4552433732313a20617070726f766520746f2063616c6c65720000000000000060448201526064016107cf565b6001600160a01b03838116600081815260076020908152604080832094871680845294825291829020805460ff191686151590811790915591519182527f17307eab39ab6107e8899845ad3d59bd9653f200f220920489ca2b5937696c31910160405180910390a3505050565b6120b1848484611dab565b6120bd8484848461243c565b6114895760405162461bcd60e51b81526004016107cf906131d2565b606060006120e68361253d565b600101905060008167ffffffffffffffff81111561210657612106612b22565b6040519080825280601f01601f191660200182016040528015612130576020820181803683370190505b5090508181016020015b600019016f181899199a1a9b1b9c1cb0b131b232b360811b600a86061a8153600a850494508461213a57509392505050565b6000805b6000838152600d602052604090205481101561224457612194600980546001019055565b6000838152600d60205260409020805460019190839081106121b8576121b8612e73565b906000526020600020906006020160050160016101000a81548160ff021916908315150217905550612232600d6000858152602001908152602001600020828154811061220757612207612e73565b60009182526020909120600260069092020101546001600160a01b031661222d60095490565b612615565b8061223c81612e5a565b915050612170565b50506000908152600c60205260409020600a01805463ff00000019166301000000179055600190565b6000826001600160a01b03168260405160006040518083038185875af1925050503d80600081146122ba576040519150601f19603f3d011682016040523d82523d6000602084013e6122bf565b606091505b505090508061087057600080fd5b6000805b6000838152600d6020526040902054811015612415576000838152600d602052604090208054600191908390811061230b5761230b612e73565b906000526020600020906006020160050160006101000a81548160ff0219169083151502179055506123ba600d6000858152602001908152602001600020828154811061235a5761235a612e73565b906000526020600020906006020160020160009054906101000a90046001600160a01b0316600d600086815260200190815260200160002083815481106123a3576123a3612e73565b90600052602060002090600602016003015461226d565b6000838152600d602052604090208054829081106123da576123da612e73565b906000526020600020906006020160030154600a60008282546123fd919061317a565b9091555081905061240d81612e5a565b9150506122d1565b50506000908152600c60205260409020600a01805462ff0000191662010000179055600190565b60006001600160a01b0384163b1561253257604051630a85bd0160e11b81526001600160a01b0385169063150b7a0290612480903390899088908890600401613224565b6020604051808303816000875af19250505080156124bb575060408051601f3d908101601f191682019092526124b891810190613261565b60015b612518573d8080156124e9576040519150601f19603f3d011682016040523d82523d6000602084013e6124ee565b606091505b5080516000036125105760405162461bcd60e51b81526004016107cf906131d2565b805181602001fd5b6001600160e01b031916630a85bd0160e11b149050611da3565b506001949350505050565b60008072184f03e93ff9f4daa797ed6e38ed64bf6a1f0160401b831061257c5772184f03e93ff9f4daa797ed6e38ed64bf6a1f0160401b830492506040015b6d04ee2d6d415b85acef810000000083106125a8576d04ee2d6d415b85acef8100000000830492506020015b662386f26fc1000083106125c657662386f26fc10000830492506010015b6305f5e10083106125de576305f5e100830492506008015b61271083106125f257612710830492506004015b60648310612604576064830492506002015b600a83106105335760010192915050565b6001600160a01b03821661266b5760405162461bcd60e51b815260206004820181905260248201527f4552433732313a206d696e7420746f20746865207a65726f206164647265737360448201526064016107cf565b6000818152600460205260409020546001600160a01b0316156126d05760405162461bcd60e51b815260206004820152601c60248201527f4552433732313a20746f6b656e20616c7265616479206d696e7465640000000060448201526064016107cf565b6000818152600460205260409020546001600160a01b0316156127355760405162461bcd60e51b815260206004820152601c60248201527f4552433732313a20746f6b656e20616c7265616479206d696e7465640000000060448201526064016107cf565b6001600160a01b038216600081815260056020908152604080832080546001019055848352600490915280822080546001600160a01b0319168417905551839291907fddf252ad1be2c89b69c2b068fc378daa952ba7f163c4a11628f55a4df523b3ef908290a45050565b604051806101c00160405280600081526020016060815260200160006001600160a01b03168152602001600081526020016000815260200160008152602001600081526020016000815260200160008152602001600081526020016000151581526020016000151581526020016000151581526020016000151581525090565b6001600160e01b031981168114611a7957600080fd5b60006020828403121561284857600080fd5b81356114fc81612820565b60005b8381101561286e578181015183820152602001612856565b50506000910152565b6000815180845261288f816020860160208601612853565b601f01601f19169290920160200192915050565b6020815260006114fc6020830184612877565b6000602082840312156128c857600080fd5b5035919050565b60006101c08251845260208301518160208601526128ef82860182612877565b915050604083015161290c60408601826001600160a01b03169052565b50606083015160608501526080830151608085015260a083015160a085015260c083015160c085015260e083015160e08501526101008084015181860152506101208084015181860152506101408084015161296b8287018215159052565b505061016083810151151590850152610180808401511515908501526101a092830151151592909301919091525090565b6020815260006114fc60208301846128cf565b80356001600160a01b03811681146129c657600080fd5b919050565b600080604083850312156129de57600080fd5b6129e7836129af565b946020939093013593505050565b602080825282518282018190526000919060409081850190868401855b82811015612a77578151805185528681015187860152858101516001600160a01b031686860152606080820151908601526080808201519086015260a08082015115159086015260c09081015115159085015260e09093019290850190600101612a12565b5091979650505050505050565b600080600060608486031215612a9957600080fd5b612aa2846129af565b9250612ab0602085016129af565b9150604084013590509250925092565b6000602080830181845280855180835260408601915060408160051b870101925083870160005b82811015612b1557603f19888603018452612b038583516128cf565b94509285019290850190600101612ae7565b5092979650505050505050565b634e487b7160e01b600052604160045260246000fd5b600067ffffffffffffffff80841115612b5357612b53612b22565b604051601f8501601f19908116603f01168101908282118183101715612b7b57612b7b612b22565b81604052809350858152868686011115612b9457600080fd5b858560208301376000602087830101525050509392505050565b600082601f830112612bbf57600080fd5b6114fc83833560208501612b38565b60008060008060008060c08789031215612be757600080fd5b86359550602087013567ffffffffffffffff811115612c0557600080fd5b612c1189828a01612bae565b96999698505050506040850135946060810135946080820135945060a09091013592509050565b600060208284031215612c4a57600080fd5b6114fc826129af565b60008060408385031215612c6657600080fd5b50508035926020909101359150565b60008060408385031215612c8857600080fd5b612c91836129af565b915060208301358015158114612ca657600080fd5b809150509250929050565b60008060008060808587031215612cc757600080fd5b612cd0856129af565b9350612cde602086016129af565b925060408501359150606085013567ffffffffffffffff811115612d0157600080fd5b8501601f81018713612d1257600080fd5b612d2187823560208401612b38565b91505092959194509250565b600080600080600060a08688031215612d4557600080fd5b853567ffffffffffffffff811115612d5c57600080fd5b612d6888828901612bae565b9860208801359850604088013597606081013597506080013595509350505050565b60008060408385031215612d9d57600080fd5b612da6836129af565b9150612db4602084016129af565b90509250929050565b600181811c90821680612dd157607f821691505b602082108103612df157634e487b7160e01b600052602260045260246000fd5b50919050565b6020808252602d908201527f4552433732313a2063616c6c6572206973206e6f7420746f6b656e206f776e6560408201526c1c881bdc88185c1c1c9bdd9959609a1b606082015260800190565b634e487b7160e01b600052601160045260246000fd5b600060018201612e6c57612e6c612e44565b5060010190565b634e487b7160e01b600052603260045260246000fd5b6020808252600f908201526e115d995b9d081b9bdd08199bdd5b99608a1b604082015260600190565b602080825260139082015272556e617574686f72697a656420656e7469747960681b604082015260600190565b60208082526024908201527f5469636b6574436f7374206d7573742062652067726561746572207468616e206040820152637a65726f60e01b606082015260800190565b60208082526022908201527f4361706163697479206d7573742062652067726561746572207468616e207a65604082015261726f60f01b606082015260800190565b60208082526024908201527f53746172742064617465206d7573742062652067726561746572207468616e206040820152637a65726f60e01b606082015260800190565b60208082526028908201527f456e642064617465206d7573742062652067726561746572207468616e207374604082015267617274206461746560c01b606082015260800190565b601f82111561087057600081815260208120601f850160051c810160208610156130185750805b601f850160051c820191505b8181101561303757828155600101613024565b505050505050565b815167ffffffffffffffff81111561305957613059612b22565b61306d816130678454612dbd565b84612ff1565b602080601f8311600181146130a2576000841561308a5750858301515b600019600386901b1c1916600185901b178555613037565b600085815260208120601f198616915b828110156130d1578886015182559484019460019091019084016130b2565b50858210156130ef5787850151600019600388901b60f8161c191681555b5050505050600190811b01905550565b808202811582820484141761053357610533612e44565b8082018082111561053357610533612e44565b6000835161313b818460208801612853565b83519083019061314f818360208801612853565b01949350505050565b60008261317557634e487b7160e01b600052601260045260246000fd5b500490565b8181038181111561053357610533612e44565b60208082526025908201527f4552433732313a207472616e736665722066726f6d20696e636f72726563742060408201526437bbb732b960d91b606082015260800190565b60208082526032908201527f4552433732313a207472616e7366657220746f206e6f6e20455243373231526560408201527131b2b4bb32b91034b6b83632b6b2b73a32b960711b606082015260800190565b6001600160a01b038581168252841660208201526040810183905260806060820181905260009061325790830184612877565b9695505050505050565b60006020828403121561327357600080fd5b81516114fc8161282056fea264697066735822122045ea1cd6d8152744eb92db18207fb4e406de3cde55c59e37350f2d274f98ce7a64736f6c63430008110033",
  "linkReferences": {},
  "deployedLinkReferences": {}
}